:100000000C9441050C9469050C9469050C946905E0
:100010000C9469050C9469050C9469050C946905A8
:100020000C9469050C9469050C94B60B0C94250C82
:100030000C9469050C9469050C9469050C94690588
:100040000C9469050C94010F0C9469050C946905D6
:100050000C9469050C9469050C9469050C94570E71
:100060000C9469050C9469050C9469050C94690558
:100070000C9469050C9469050C9469050C94690548
:100080000C94A10E0C9469050C9469050C946905F7
:100090000C9469050C9469050C9469050C94690528
:1000A0000C9469050C9469050C946905084AD73BC2
:1000B0003BCE016E84BCBFFDC12F3D6C74319ABD37
:1000C00056833DDA3D00C77F11BED9E4BB4C3E915B
:1000D0006BAAAABE000000803F000177903D017727
:1000E00080904102EE80903F017780F000FA903DD1
:1000F00000FA80904101F480903F00FA80F000C83F
:100100009039019080903700C880903500C880F009
:1001100000FA903D00FA8001F4903F00FA80F0016F
:1001200090903700C88000C8903700C88000C89001
:100130003700C88000C8903500C880019090350015
:10014000C88000C8903400C880903400C880F09007
:100150003F00C880904000C880904100C880904215
:1001600000C880904300C880904400C8809045003B
:10017000C880904600C880904700C880904800C85A
:1001800080F0904400FA80904300FA80904200FA98
:1001900080904100FA80904000FA80904300FA80FD
:1001A000904200FA80904100FA80904400FA8090DA
:1001B0004300FA80904200FA80904100FA8090401B
:1001C00000FA80903F01F480F001F4904600FA803C
:1001D00000FA904700FA8000FA904800FA8000FA8E
:1001E000904600FA8000FA904400FA80F002EE9007
:1001F0004300FA80904400FA80904502EE80F002BD
:10020000EE904300FA80903F00FA80904300FA801D
:10021000903F00FA80904700FA80904200FA809068
:100220004700FA80904200FA80F003E8903F00FA1D
:1002300080904300FA80903F00FA80904300FA805B
:10024000F0903F00FA80904200FA80903F00FA80E0
:1002500000FA904100FA80903D00FA80904100FA47
:1002600080903D00FA80F001F4903900FA80903CD3
:1002700000FA8000FA903900FA80903C00FA80F091
:1002800002EE903C00FA8000FA903700FA80903C31
:1002900000FA8000FA903700FA80F0904400FA806B
:1002A000904300FA80904201F480F0903E03E88091
:1002B000903D03E880F0904103E880904003E8809F
:1002C000F0904403E880904303E880F0904603E810
:1002D00080904503E880F0904803E880904703E869
:1002E00080F003E8903E03E880F003E8904003E8E4
:1002F00080F003E8904403E880F003E8904203E8CC
:1003000080F003E8904603E880F003E8904803E8B3
:1003100080F000000000003E5B4F5B3E3E6B4F6B89
:100320003E1C3E7C3E1C183C7E3C181C577D571CD6
:100330001C5E7F5E1C00183C1800FFE7C3E7FF004F
:1003400018241800FFE7DBE7FF30483A060E26299D
:10035000792926407F050507407F05253F5A3CE760
:100360003C5A7F3E1C1C08081C1C3E7F14227F2226
:10037000145F5F005F5F06097F017F006689956AF1
:10038000606060606094A2FFA29408047E0408107C
:10039000207E201008082A1C08081C2A08081E10A5
:1003A0001010100C1E0C1E0C30383E3830060E3E5D
:1003B0000E06000000000000005F000000070007BC
:1003C00000147F147F14242A7F2A122313086462E6
:1003D00036495620500008070300001C2241000047
:1003E00041221C002A1C7F1C2A08083E08080080A5
:1003F000703000080808080800006060002010083D
:1004000004023E5149453E00427F4000724949493D
:10041000462141494D331814127F1027454545396F
:100420003C4A494931412111090736494949364673
:100430004949291E00001400000040340000000853
:1004400014224114141414140041221408020159F6
:1004500009063E415D594E7C1211127C7F49494983
:10046000363E414141227F4141413E7F4949494118
:100470007F090909013E414151737F0808087F0047
:10048000417F41002040413F017F081422417F40CD
:100490004040407F021C027F7F0408107F3E4141A4
:1004A000413E7F090909063E4151215E7F09192914
:1004B00046264949493203017F01033F4040403FFE
:1004C0001F2040201F3F4038403F6314081463033F
:1004D000047804036159494D43007F4141410204BE
:1004E000081020004141417F0402010204404040C5
:1004F0004040000307080020545478407F284444BB
:10050000383844444428384444287F3854545418D4
:1005100000087E090218A4A49C787F0804047800CF
:10052000447D40002040403D007F102844000041B1
:100530007F40007C047804787C08040478384444C4
:100540004438FC1824241818242418FC7C080404BB
:1005500008485454542404043F44243C4040207C24
:100560001C2040201C3C4030403C44281028444C77
:100570009090907C4464544C440008364100000044
:10058000770000004136080002010204023C2623E5
:10059000263C1EA1A161123A4040207A385454559D
:1005A0005921555579412154547841215554784069
:1005B00020545579400C1E527212395555555939EF
:1005C0005454545939555454580000457C41000244
:1005D000457D420001457C40F0292429F0F0282582
:1005E00028F07C545545002054547C547C0A097FE3
:1005F0004932494949323248484832324A484830FB
:100600003A4141217A3A42402078009DA0A07D39AC
:10061000444444393D4040403D3C24FF2424487E2E
:100620004943662B2FFC2F2BFF0929F620C0887E1B
:10063000090320545479410000447D413048484A20
:1006400032384040227A007A0A0A727D0D19317DD3
:100650002629292F28262929292630484D402038A7
:100660000808080808080808382F10C8ACBA2F1066
:100670002834FA00007B000008142A142222142ACD
:1006800014089500220095AA005500AAAA55AA555B
:10069000AA000000FF00101010FF00141414FF0047
:1006A0001010FF00FF1010F010F0141414FC0014D0
:1006B00014F700FF0000FF00FF1414F404FC1414EE
:1006C00017101F10101F101F1414141F00101010EB
:1006D000F0000000001F101010101F10101010F07C
:1006E00010000000FF101010101010101010FF105C
:1006F000000000FF140000FF00FF00001F101700A3
:1007000000FC04F414141710171414F404F400007B
:10071000FF00F714141414141414F700F71414142D
:10072000171410101F101F141414F4141010F010CC
:10073000F000001F101F0000001F14000000FC1438
:100740000000F010F01010FF10FF141414FF14102C
:1007500010101F00000000F010FFFFFFFFFFF0F07F
:10076000F0F0F0FFFFFF0000000000FFFF0F0F0F91
:100770000F0F38444438447C2A2A3E147E02020675
:1007800006027E027E0263554941633844443C04BC
:10079000407E201E2006027E020299A5E7A5991C34
:1007A0002A492A1C4C7201724C304A4D4D30304857
:1007B000784830BC625A463D3E494949007E0101B5
:1007C000017E2A2A2A2A2A44445F444440514A444A
:1007D0004040444A51400000FF0103E080FF000018
:1007E00008086B6B083612362436060F090F060010
:1007F0000018180000001010003040FF0101001F19
:1008000001011E00191D1712003C3C3C3C00000079
:10081000000000000000240027002A002D00300006
:1008200000000000250028002B002E0031000408E5
:1008300002011040804010204080408008020401E6
:100840008040201002011080102040402004040449
:100850000404030405020202020403020202020667
:100860000606060606040402020204040601150137
:10087000260137014A015D01720188019F01B8011B
:10088000D201EE010B022A024B026E029302BA025F
:10089000E40210033F037003A403DC0317045504B0
:1008A0009704DD0427057505C80520067D06E006CA
:1008B0004907B8072D08A9082D09B9094D0AEA0A00
:1008C000900B400CFA0CC00D910E6F0F5A10531183
:1008D0005B1272139A14D41520178018F519801B17
:1008E000231DDE1EB420A622B524E4263429A72B1E
:1008F000402E0031EA330037453ABC3D68414C4553
:100900006B49C84D68524F57805C0062101112133A
:10091000151617181A1C1D1F21232527292C2E31C7
:1009200034373A3E4145494E52575C62686E757B9A
:10093000838B939CA5AFB9C4D0DCE9F7F0F89C8E0B
:100940008783878E9CF8F00000FEFF0303030303F8
:10095000070EFCF80000FEFF0303030303070EFC71
:10096000F80000FFFF00000000000000FFFF000093
:10097000FEFF8383838383C7EE7C380000F8FC0E80
:1009800007030303070EFCF800003F7FE0C08080F0
:10099000C0E07F3FFFFF01010101010101FFFF00F6
:1009A00000FFFF0C0C0C0C1C3E77E3C100007FFF26
:1009B000C0C0C0C0C0E0703F1F00001F3F70E0C05B
:1009C000C0C0E0703F1F00007FFFC1C1C1C1C1E3D3
:1009D000773E1C00001F3F70E0C0C0C0E0703F1FAA
:1009E000000000000001FFFF01000000D5F08D14A1
:1009F000A1C881CFD9F1AF20007FBFDFEFF7FBFDAA
:100A0000FE080B00020202000009040000010202BD
:100A10000000052400100105240101010424020640
:100A200005240600010705810310004009040100A8
:100A3000020A0000000705020240000007058302C9
:100A40004000000403090412010002EF02014041CA
:100A500023368000010102030141726475696E6FE3
:100A6000204C4C430041726475696E6F204C656F79
:100A70006E6172646F008040201008040201331020
:100A8000961911241FBECFEFDAE0DEBFCDBF11E013
:100A9000A0E0B1E0E0E9F2E402C005900D92A439D3
:100AA000B107D9F726E0A4E9B1E001C01D92A7354E
:100AB000B207E1F715E0C0E4D5E004C02197FE01DC
:100AC0000E94E81FCF33D107C9F70E9483100C940E
:100AD0003B210C9400008091AA010895E82FE77053
:100AE000F0E0EA58F54FE491ADE2B6E012962C91B1
:100AF000129786958695869590E0629F800D911D50
:100B000011241A960D90BC91A02DA80FB91F8C919D
:100B1000E82BEC930895E82FE770F0E0EA58F54FE2
:100B2000E49190912F06869586958695A09137063B
:100B3000B0913806699FA00DB11D1124A80FB11DF9
:100B40008C91E82381E009F480E00895EBEDF1E079
:100B5000A0E0B8E000800EBC8111012C1197A0FD2F
:100B6000FDCF0192B9F70DB40895FC018091DA012F
:100B7000882311F13FB7F89482E08093E900209137
:100B8000F200822F90E01816190614F481E090E02C
:100B9000882339F0289844E64093D9014091F10028
:100BA0004083222339F02091F200211103C02BE66B
:100BB0002093E8003FBF08958FEF9FEF08952FB770
:100BC000F89483E08093E9009091E800892F807287
:100BD00095FF04C09091F20080E4891B2FBF089517
:100BE0008091D10181110DC082E08093CD0184E01C
:100BF0008093CE011092D0011092CF0181E08093BA
:100C0000D1018DEC91E00895CF93DF931F92CDB782
:100C1000DEB76983DC01ED91FC910280F381E02D68
:100C200041E050E0BE016F5F7F4F09950F90DF916B
:100C3000CF91089583E08093E9008091F2008823AA
:100C400019F08AE38093E80008950E94DF0590E0A0
:100C50000895CF93DF931F92CDB7DEB7FC01848553
:100C6000958597FD08C02FEF3FEF358724870F90BC
:100C7000DF91CF910895CE0101960E94B5050197AD
:100C800019F4898190E0F3CF8FEF9FEFF0CF0F93AE
:100C90001F93CF93DF931F92CDB7DEB78C01FC017A
:100CA0008485958597FF0BC0CE0101960E94B505FE
:100CB000019771F4898190E0F80195878487F801A4
:100CC000848595850F90DF91CF911F910F910895A5
:100CD0008FEF9FEFF1CFFC018485958597FD0BC0C9
:100CE0009FB7F89482E08093E9008091F2009FBF63
:100CF00090E0019608959FB7F89482E08093E90010
:100D00008091F2009FBF90E008954091C7015091FB
:100D1000C8012091C5013091C60142175307B4F4B0
:100D20009091E8009570E1F39091E80092FD19C070
:100D30008093F1008091C7019091C80101968F7353
:100D40009927892B19F48EEF8093E8008091C701D1
:100D50009091C80101969093C8018093C70181E0EA
:100D6000089580E00895DF92EF92FF920F931F9312
:100D7000CF93DF93D82E8A01EB017B01E40EF51EA1
:100D8000CE15DF0559F0D7FE12C0FE0184910E94F6
:100D9000850621968111F4CF0FEF1FEFC801DF9177
:100DA000CF911F910F91FF90EF90DF900895888170
:100DB000EECF0F931F93CF93DF931F92CDB7DEB784
:100DC00082E0898342E450E061E07AE080E80E94BA
:100DD000B3060E94F005DC0112960D911C910115DD
:100DE000110589F0D801ED91FC910280F381E02D8D
:100DF000BE016F5F7F4FC801099597FD04C0F801E0
:100E000000851185ECCF89810F90DF91CF911F91E3
:100E10000F910895615030F02091F100FC01208382
:100E20000196F8CF289884E68093D9010895AF926F
:100E3000BF92CF92DF92EF92FF920F931F93CF93C7
:100E4000DF936C017B018B01040F151FEB015E0129
:100E5000AE18BF08C017D10759F06991D601ED91BE
:100E6000FC910190F081E02DC6010995892B79F75D
:100E7000C501DF91CF911F910F91FF90EF90DF900F
:100E8000CF90BF90AF9008953FB7F8948091A6019E
:100E90009091A701A091A801B091A90126B5A89BA6
:100EA00005C02F3F19F00196A11DB11D3FBFBA2FFC
:100EB000A92F982F8827BC01CD01620F711D811DBC
:100EC000911D42E0660F771F881F991F4A95D1F741
:100ED00008958F929F92AF92BF92CF92DF92EF923E
:100EE000FF926B017C010E9444074B015C01C1141D
:100EF000D104E104F104B9F00E94440768197909AA
:100F00008A099B09683E73408105910580F321E0C1
:100F1000C21AD108E108F10888EE880E83E0981E15
:100F2000A11CB11CE4CFFF90EF90DF90CF90BF9059
:100F3000AF909F908F9008958F929F92AF92BF92A3
:100F4000CF92DF92EF92FF920F931F93CF93DF9395
:100F50006C017B018A0180910D01882309F45CC03A
:100F60008091DA01882309F457C08091CC0180FF79
:100F700005C08091E00082608093E000E801B12C20
:100F80008AEFA82E93E0892E2AE3922E209711F45F
:100F9000BB20D9F10E94DF0581110AC0AA94AA20C2
:100FA000D9F161E070E080E090E00E946907EECF47
:100FB0008C171D0611F00CF08C2F9FB7F8948092BF
:100FC000E9002091E80025FD02C09FBFDFCF282F58
:100FD00030E0C21BD30BF701815020F041914093C8
:100FE000F100FACFE20EF31EBB2021F09092E80050
:100FF000B12CEBCF8091E80085FDE7CF9092E8001F
:10100000BB24B394209709F3F3CF5D9884E68093D3
:10101000CB01101611063CF081E090E0F6019383BD
:10102000828310E000E0C801DF91CF911F910F9102
:10103000FF90EF90DF90CF90BF90AF909F908F90F8
:101040000895FB012081318142815381241B350B9E
:10105000FC0140815181241B350B82819381820FD9
:10106000931F0895FC0182819381FB0122813381CA
:10107000821B930B0895FC01208131818281938131
:10108000820F931FFB0120813181821B930B2281F0
:101090003381821B930B0895FC0180819181FB01B8
:1010A00020813181821B930B0895FC018081918105
:1010B00022813381821B930BFB0120813181821BB2
:1010C000930B22813381820F931F0895FB012281AC
:1010D0003381FC0182819381A901481B590BCA010C
:1010E0000895FC01DB012D913C91119712968D9191
:1010F0009C91280F391F80819181281B390B828197
:101100009381A901481B590BCA010895FB01408135
:101110005181FC0120813181CA01821B930B08950A
:10112000CF92DF92EF92FF921F93CF93DF93E82F3E
:10113000F0E0E85EFE4F1081E62FF0E0603398F5B6
:10114000E45FF64FE491CE2FD0E0F12CE12C60E08B
:1011500074E284EF90E0A7019E010E942F1C2150B1
:1011600031094109510991E02115310581E0480714
:1011700051056CF060E970ED83E090E0A7019E01FD
:101180000E942F1C215031094109510993E011306F
:1011900089F0133039F1DF91CF911F91FF90EF90DB
:1011A000DF90CF900895EE0FFF1FE45FF74FC591DA
:1011B000D491CBCF8091B1018111EDCF809181008D
:1011C000887F892B80938100309389002093880049
:1011D000109285001092840080916F00826080934D
:1011E0006F00D9CF80919100887F892B80939100E7
:1011F00030939900209398001092950010929400DB
:10120000D093A401C093A30181E08093A2018091B7
:101210007100826080937100BECFE82FF0E0E85E3D
:10122000FE4F8081813019F08330A9F008958091BC
:10123000B10181110FC080916F008D7F80936F008D
:1012400080919901E0919701F091980190818095AA
:101250008923808308951092A2018091AF018111AA
:10126000F9CF8091A001E0919E01F0919F01EECF16
:10127000CF93DF93D1E0E091B401F091B501AF01DC
:101280004F5F5F4F5093B5014093B4012491822F7B
:10129000807FC22FCF70803821F48C2F0E940D09DF
:1012A000EACF803919F5E0912B06F0912C060995CB
:1012B0008D278093A101E091B401F091B501CF0198
:1012C00001969093B5018093B40164918091B2012D
:1012D000C81788F6C13021F4809196018111CBCFD7
:1012E00067FDC9CF8C2F0E949008C5CF87FD3CC0F9
:1012F0003296F093B501E093B401FA014491A091C4
:10130000A301B091A401322F242F0E94BA1C6C506B
:101310007E4F8F4F9F4F28EE33E040E050E00E9419
:10132000981C20939A0130939B0140939C01509309
:101330009D0180919A0190919B01A0919C01B09197
:101340009D01892B8A2B8B2B61F481E090E0A0E03A
:10135000B0E080939A0190939B01A0939C01B0937D
:101360009D01DF91CF910895803E49F48091B601AF
:101370009091B7019093B5018093B4017CCF803FE9
:1013800009F079CF1092B301ECCF9091B201923075
:1013900009F471C0292F30E0F901E85EFE4F408169
:1013A0002C563E4FF9018083913031F42091940105
:1013B000281302C0909396019F5F9093B20190E032
:1013C000FC01E35BF74F2491825D974FFC01849110
:1013D00030E0220F331FF901E05EF74F6591749101
:1013E000F901EE5EF74FA591B4919C91982B9C93D7
:1013F000413019F04330D9F0089590916400977FFF
:10140000909364001092800010928100909181006E
:1014100098609093810090918100916090938100F9
:10142000709398016093970180939901089590912A
:101430006500977F90936500109290001092910044
:10144000909191009860909391009091910091609B
:101450009093910070939F0160939E018093A001EF
:101460008091B201882321F06CE380E00E94900813
:1014700080E00C940D0908952D9A0895BC0190E028
:1014800080E00C9469078FB18095807F669B8860AF
:101490001C9B846008955C988EBD00000DB407FE0F
:1014A000FDCF5C9A089580389105B8F460347105D9
:1014B000A0F420E191E061FD94E060FD990F62FDF0
:1014C0009295687F269FD0011124A80FA552BE4F88
:1014D0008C9140FF03C0892B8C93089590958923AC
:1014E000FBCF9F92AF92BF92CF92DF92EF92FF928B
:1014F0000F931F93CF93DF93EC017B01942E5C013C
:1015000022E0A20EB11C6B0182E0C80ED11CCA15EC
:10151000DB05A9F08701C60121E4C216D10414F04D
:1015200080E490E00817190744F4492DB801CE0172
:101530000E94530A0F5F1F4FEECF2196E8CFDF9135
:10154000CF911F910F91FF90EF90DF90CF90BF90C0
:10155000AF909F9008952F923F924F925F926F921B
:101560007F928F929F92AF92BF92CF92DF92EF9233
:10157000FF920F931F93CF93DF93CDB7DEB72A97D8
:101580000FB6F894DEBF0FBECDBF9A8389836A3051
:1015900061F5DC0155968C91B8E08B9F9001112488
:1015A000E981FA8181899289820F931F928B818BC5
:1015B000108A178681E090E02A960FB6F894DEBF75
:1015C0000FBECDBFDF91CF911F910F91FF90EF9094
:1015D000DF90CF90BF90AF909F908F907F906F9053
:1015E0005F904F903F902F9008956D3019F32981AF
:1015F0003A813A872987D9011F96AD90BC90B0E80F
:10160000AB16B1040CF07BC0F901C188D288F0E4BC
:10161000CF16D1040CF073C0D90155966C90559734
:1016200045E09501649E200D311D1124121613060C
:101630000CF065C0262C312C910153E0220F331F92
:101640005A95E1F72C0D3D1D121613060CF057C0EC
:101650005496BC91BB83E985FA85F389FC83649F2A
:10166000B00111249B012E5E3C4F3A832983712CDB
:10167000E981FA818491F5E07F1201C080E04601A2
:1016800038E0532E282F30E03E832D834C8080FF9E
:101690004B80411004C03B818C813817E1F010E091
:1016A00000E00615C0F4D501A00FB11FB887AF83C5
:1016B000F12CE12CE61460F4B701680D791D442D7E
:1016C0008F8198850E94530ABFEFEB1AFB0AF2CF75
:1016D0000F5F1F4FE6CF8D819E81959587955A9418
:1016E000820C931C5110CECF7394E981FA8131960C
:1016F000FA83E983A20CB31CF6E07F12B9CFA98567
:10170000BA8555962C915597422F50E01F968D9192
:101710009C91B6E02B9F800D911D1124E985FA85DF
:10172000908B87872689222309F444CF6AEF6403CC
:101730009001659F300D112420583F4F281739071D
:101740000CF038CFDF010190F081E02D0190F081A5
:10175000E02D6AE0CD0109952DCF0895089590E020
:1017600080E008950C94051C0E942F211F920F9277
:101770000FB60F9211248F939F938091E100909167
:10178000E100937F9093E10083FF0FC01092E90086
:1017900091E09093EB001092EC0092E39093ED00B7
:1017A0001092DA0198E09093F00082FF22C093E05B
:1017B0009093E9009091F200992319F09AE39093A5
:1017C000E8009091CB01992341F09091CB01915089
:1017D0009093CB01911101C05D9A9091D901992309
:1017E00041F09091D90191509093D901911101C08C
:1017F000289A84FF18C08091E2008E7E81608093D9
:10180000E2008091E1008F7E8093E1008091CC0125
:101810008E7E80618093CC019F918F910F900FBE3F
:101820000F901F90189580FFF7CF8091E2008E7E79
:1018300080618093E2008091E1008E7E8093E100E0
:101840008091CC018E7E8160E5CF1F920F920FB602
:101850000F921124CF92DF92EF92FF920F931F937A
:101860002F933F934F935F936F937F938F939F93A8
:10187000AF93BF93EF93FF93CF93DF93CDB7DEB7D3
:101880006C97DEBFCDBF1092E9008091E80083FF26
:1018900025C068E0CE0145960E940A0782EF80933A
:1018A000E8008D8987FF39C09091E80090FFFCCF58
:1018B000982F907609F034C19E894F89588D2F89D1
:1018C000F88C911131C0803861F58091CA01809304
:1018D000F1001092F1008EEF8093E8006C960FB645
:1018E000F894DEBF0FBECDBFDF91CF91FF91EF9196
:1018F000BF91AF919F918F917F916F915F914F9128
:101900003F912F911F910F91FF90EF90DF90CF901B
:101910000F900FBE0F901F9018959EEF9093E800C8
:10192000C7CF1092F100D5CF913059F48111D3CFA8
:101930004130510581F68091CA018D7F8093CA01A3
:10194000CACF933049F48111C6CF4130510519F601
:101950008091CA018260F2CF953041F48091E80015
:1019600080FFFCCF20682093E300B5CF963009F0CC
:10197000A9C00B8D1C8D22E01092E9001092C801C5
:101980001092C701F2122EC01092C6011092C5012A
:101990000E94D9061F8299E09983FA8291E09E8382
:1019A00090EA98879AEF99872091C7013091C801F2
:1019B000275F3F4F3C832B838D831092E900109269
:1019C000C8011092C7011093C6010093C50149E0F8
:1019D00050E0BE016F5F7F4F80E00E94B3060E941F
:1019E000D90679CF1093C6010093C5010E94F00576
:1019F000DC0112960D911C910115110509F451C1DC
:101A0000D801ED91FC910480F581E02DBE016B5E63
:101A10007F4FC8010995009709F03EC1F801008584
:101A20001185EACFF3E0FF120EC08F89882309F4F5
:101A300040C0823061F440E860E185E69AE00E94AF
:101A4000BB0F811148CF81E28093EB0047CF8130FB
:101A500029F440E86BE089E59AE0F1CF833099F70B
:101A60000E94F005DC011296ED90FC908E010F5F54
:101A70001F4F6801E114F10479F0D701ED91FC9159
:101A80000680F781E02DB801C7010995080F111DE7
:101A9000F701E084F184EECFD8011C92F6010190A9
:101AA0000020E9F73197BF016C197D0940E0C601BC
:101AB000C6CF63E47AE0FB01449150E080E80E94E5
:101AC000B30609CF973009F4BECF983021F481E0F6
:101AD0008093F10000CF993009F0FDCE837009F0BA
:101AE000B2CFE7E6F1E081E031E096E321912223F5
:101AF00071F08093E9003093EB00DF0111972C9196
:101B00002093EC009093ED008F5F873079F78EE79C
:101B10008093EA001092EA008F898093DA01DBCE8D
:101B20008B8D9C8D1092E9001092C8011092C70114
:101B30009093C6018093C501898D811192C08E89D1
:101B40009D89913A49F4813209F07DCF47E050E018
:101B500066E071E080E0B3CF913209F074CF833258
:101B600069F48F89988DB0E0A0E080930201909392
:101B70000301A0930401B0930501ADCE803269F456
:101B80008091E80082FFFCCF67E086E091E00E9450
:101B90000A078BEF8093E8009ECE823209F09BCE3D
:101BA0008F8980930D01EEEFFFE7859194918B3F34
:101BB0009C4D51F1E0E0F8E0809106019091070121
:101BC000A0910801B0910901803B9440A105B105A5
:101BD000F1F480910D0180FD1AC0EE3F8AE0F80714
:101BE00089F587E797E791838083809160008093F0
:101BF000C90188E19BE00FB6F894A8958093600036
:101C00000FBE9093600067CEEEEFFAE0D5CF8081F3
:101C100091818737974709F05ECEA8958091600043
:101C20008861809360008091C90180936000EE3FDD
:101C30002AE0F20789F08091FE0A9091FF0A9183D1
:101C4000808349CE808191818737980751F29093A4
:101C5000FF0A8093FE0AC5CF1092FF0A1092FE0A77
:101C60003ACE0E94F005DC0112960D911C910115EF
:101C7000110509F4E8CED801ED91FC910190F081B5
:101C8000E02DBE016B5E7F4FC8010995811123CE07
:101C9000F80100851185EBCF181619060CF41BCE40
:101CA000D2CEF1E0FF12BECE67E47AE004CF1F92FD
:101CB0000F920FB60F9211242F933F938F939F9300
:101CC000AF93BF938091B8019091B901A091BA01EF
:101CD000B091BB013091A50123E0230F2D3758F5BA
:101CE0000196A11DB11D2093A5018093B801909389
:101CF000B901A093BA01B093BB018091A601909164
:101D0000A701A091A801B091A9010196A11DB11D43
:101D10008093A6019093A701A093A801B093A90175
:101D2000BF91AF919F918F913F912F910F900FBED7
:101D30000F901F90189526E8230F0296A11DB11D44
:101D4000D2CF1F920F920FB60F9211242F933F9371
:101D50004F935F936F937F938F939F93AF93BF93B3
:101D6000EF93FF938091A201882389F08091AF01C6
:101D700081110DC08091A101811109C09091A00134
:101D8000E0919E01F0919F0180818927808380915D
:101D9000B301882329F180919A0190919B01A09130
:101DA0009C01B0919D01892B8A2B8B2BC9F08091CE
:101DB0009A0190919B01A0919C01B0919D01019786
:101DC000A109B10980939A0190939B01A0939C0172
:101DD000B0939D01892B8A2B8B2B11F40E9438091B
:101DE000FF91EF91BF91AF919F918F917F916F91F3
:101DF0005F914F913F912F910F900FBE0F901F90C9
:101E000018951F920F920FB60F9211248F939F93E4
:101E1000AF93BF93EF93FF938091B101882309F4AF
:101E200054C08091AB019091AC01A091AD01B091F3
:101E3000AE01892B8A2B8B2BA1F190919901E09116
:101E40009701F09198018081892780838091AB016F
:101E50009091AC01A091AD01B091AE011816190698
:101E60001A061B069CF48091AB019091AC01A091E5
:101E7000AD01B091AE010197A109B1098093AB0109
:101E80009093AC01A093AD01B093AE01FF91EF919F
:101E9000BF91AF919F918F910F900FBE0F901F90A8
:101EA00018951092AF011092B10180916F008D7F53
:101EB00080936F0080919901E0919701F0919801D2
:101EC0009081809589238083E1CF8091A101811148
:101ED000DDCF90919901E0919701F0919801808177
:101EE0008927F1CF80389105D4F5B0E0A0E08F3F8D
:101EF000980709F0DC0104968138910514F080E818
:101F000090E08A1BFB0177FD379693E0F595E79506
:101F10009A95E1F7F695FE2FEE27F795E795EA0FEC
:101F2000FB1FE552FE4F6770772721E030E001C0CC
:101F3000220F6A95EAF7522F413041F4815078F030
:101F40009191DF011197952B9C93F8CF20958150AB
:101F500030F09191DF01119792239C93F8CF08956F
:101F600090914606982329F090914506982381E0A8
:101F700009F080E00895EF92FF920F931F93CF93A3
:101F8000DF93F82E192FE62E042F81E0860F880F9D
:101F90000E94850683E00E948506CF2DD12FEC0E8E
:101FA000FD2EF11CCE15DF05B9F007FF13C0FE01B1
:101FB00084910E948506182F80E00E948506812367
:101FC00021968111EFCFDF91CF911F910F91FF905B
:101FD000EF9008958881EDCF81E0F5CF0F931F93A7
:101FE000CF93DF938C0181E090E00E94B20B80FFE1
:101FF00032C08AE090E00E94B20B9FEF980F9E3FA4
:1020000050F522E330E0D80150963C932E931F9771
:1020100028E330E052963C932E935197CBE0D0E0EA
:10202000D801ED91FC910190F081E02D682FC8015D
:102030000995CE010E94B20B2196C131D10581F7DD
:1020400080E00E94A60588EE93E0DF91CF911F917A
:102050000F910C943E0ADF91CF911F910F9108953B
:1020600004970C94EE0FEBEDF5E01382128288EEEC
:1020700093E0A0E0B0E084839583A683B78381E7F3
:1020800091E0918380838FEF9FEF95878487ECE3C6
:10209000F6E0138212821186128680E18387108611
:1020A0001782158683E891E09183808381E991E02E
:1020B00095838483108A1786128A118A81E0838B24
:1020C000148A858B168A2BE635E030932C062093F4
:1020D0002B06EDE2F6E090E4908390E2918398E0A5
:1020E00092832FEF3FE3348323832FEF3FE1368347
:1020F00025839AE597838087118613861286158635
:10210000148616860895CF93DF9300D000D000D0B8
:10211000CDB7DEB7789484B5826084BD84B5816024
:1021200084BD85B5826085BD85B5816085BD8091A2
:102130006E00816080936E0010928100809181001A
:102140008260809381008091810081608093810012
:1021500080918000816080938000809191008260F6
:102160008093910080919100816080939100809193
:1021700090008160809390008091C1008460809382
:10218000C1008091C10082608093C1008091C10034
:1021900081608093C1008091C30081608093C300FF
:1021A0008091C00082608093C0008091C2008160F5
:1021B0008093C20080917A00846080937A0080913D
:1021C0007A00826080937A0080917A0081608093A7
:1021D0007A0080917A00806880937A001092DA0108
:1021E0001092CA011092CC018091D7008160809337
:1021F000D70080EA8093D80089B5806189BD89B510
:10220000826089BD09B400FEFDCF61E070E080E02E
:1022100090E00E9469078091D8008F7C8061809354
:10222000D8008091E000807F8093E0008091E10001
:102230008E7E8093E1008DE08093E200559A209A93
:1022400081EC80937C0085B1806F85B984B1877EF5
:1022500084B984B1876E84B95E9A5F988AB1806DC3
:102260008AB9769A6E9881B3806F81BB899880B362
:102270008D7080BB80E58CBD81E08DBD85E090E0F8
:102280000E943E0A5F9A85E090E00E943E0A5E98B6
:102290005C98ECEEF9E089EF99E024912EBD000006
:1022A0000DB407FEFDCF31968E179F07B1F75C9AEC
:1022B00081E880936400809165008160809365006F
:1022C00080E00E94A6050E94430A87FF10C085EAAD
:1022D0000E944B0A2E982F982D988091640080625E
:1022E0008093640081E083BF889513BEFCCF0E9479
:1022F000430A82FF48C02D980E94430A847884389C
:10230000E1F40E943C0A88EC90E00E943E0A2F987B
:1023100082E090E00E94051C8F3F29F06FEF82E081
:1023200090E00E940D1C84EF91E00E943E0A2F9ADB
:102330000E94430A84788438D9F30E94430A847146
:102340008431E1F40E943C0A88EC90E00E943E0A4D
:102350002E9882E090E00E94051C882329F060E01E
:1023600082E090E00E940D1C84EF91E00E943E0A02
:102370002E9A0E94430A84718431D9F388EC90E04C
:102380000E943E0AB4CF0E943C0A82E090E00E9484
:10239000B20B882309F4A1C03E9A3F9A81E0809352
:1023A000AA0181E090E00E94B20B282F2470922EA7
:1023B00081FF10C021112E98A1EF4A2E55245A9466
:1023C00008E010E00E94430A86FF8CC02E9A2F9AE4
:1023D0000E943C0A82E390E00E943E0A0E94430A67
:1023E0008111F8CF80E180934706109134068091E7
:1023F000370690913806892B51F590912F068091E0
:102400002E0661E070E0989FC00111240E94EE1F2B
:102410009A8389839093380680933706892BB9F085
:10242000112309F4F6C068E070E0812F90E00E946B
:10243000EE1F90933A0680933906892B41F48981E7
:102440009A810E94A62010923806109237061982AF
:10245000809134068980881608F0DBC0C0902E0673
:10246000D12CF12CE12CC114D104E104F10439F098
:102470000E94AD1BA70196010E942F1C6B0180904A
:102480002D06912CB12CA12C81149104A104B1042E
:1024900039F00E94AD1BA50194010E942F1C4B0135
:1024A0006C2D882D0E948B058111D8CF6C2D882D25
:1024B0000E946E05D98028E0D29EC0011124E091CF
:1024C0003906F0913A06E80FF91F108281821282D4
:1024D000C3822D2D2F5F2983BBCF1092AA013E9876
:1024E0003F985FCF992031F034E04316510411F446
:1024F0002E9A2F9881E00E94A605920157FE04C0F3
:10250000222733272419350927703327C20157FCA6
:102510000796F3E095958795FA95E1F757FE05C084
:102520000197A801421B530B9A01AC015695542FF9
:1025300044275795479545525E4FB0E0A0E03801DB
:10254000621A730A8E3F6FEF960709F43BC06A0167
:1025500074E9C70ED11C7A0170E060E0FD01E45C13
:10256000F64F5F018F3F980779F0F501E60FF71FEF
:10257000E491F0E01F01022E01C0220C0A94EAF758
:10258000F70184882828248A2115310581F0F50176
:10259000E60FF71FE491F0E01F01062C02C035940E
:1025A00027940A94E2F7F6018080282820826F5F42
:1025B0007F4FFFEFCF1ADF0AEFEFEE1AFE0A683502
:1025C000710581F60196A85ABF4F40585F4FA03B56
:1025D000B10509F0B7CF80E00E94A6058FE090E03A
:1025E0000E943E0AFFEF4F1A5F0A29E1421651048A
:1025F00009F0E8CE992011F02F9A2D9880E991E00A
:102600000E943E0A0E943C0A8CE396E00E94EE0F74
:10261000E1CE85E00E94C5098DE00E94C5092FB773
:10262000F8948091B8019091B901A091BA01B0914C
:10263000BB012FBF20914806382F321B232F30912A
:102640004906332359F020934A061092490680E048
:1026500090E0892B21F30E940000E1CF30914706E2
:10266000231740F42F5F231790F781E083BF8895ED
:1026700013BEEDCF41E04093490680934806809118
:102680004306909144060196909344068093430636
:102690008091C401811109C00E94430A83FF05C0D3
:1026A00051E05093C4015093C3010E94430A82FF3A
:1026B00064C28091C401882309F488C11092C401C6
:1026C0000E94430A83FF11C080913706909138061B
:1026D000009759F040912F0620912E06429FA001AD
:1026E000112470E060E00E943421E091C101EE23EA
:1026F000C9F08091B301811115C0E150FF0BEE0FBD
:10270000FF1FE65DFE4F808191819093B70180931A
:10271000B6019093B5018093B4010E94380981E01D
:102720008093B3018090C0018982882009F428C277
:1027300087EA0E944B0A298121502093C001809191
:10274000C401811128C00E94430A85FF06C048E4E5
:1027500054EF5093BF014093BE010E94430A86FF8D
:1027600006C068EB7BE07093BF016093BE010E94DE
:10277000430A87FF06C088EB9BE09093BD018093DE
:10278000BC010E94430A84FF06C0A8E4B4EFB093E2
:10279000BD01A093BC01B09135068B2E912C9A827D
:1027A0008982A091BE01B091BF0194010E94E11FF6
:1027B00020E031E040E050E00E942F1C4901A09150
:1027C000BC01B091BD01B195A195B10929813A81B2
:1027D0000E94E11F20E031E040E050E00E942F1C09
:1027E000B401655071097A836983690175E0C71A7C
:1027F000D10880913B06882309F440C089809A80E3
:10280000B401990C880B990B0E94E51D4B015C01EA
:10281000B6010D2C000C880B990B0E94E51DA5013B
:1028200094010E94DC1C20E030E040E051E40E9472
:10283000A01E2BED3FE049E450E40E943B1D0E94A6
:10284000AD1DE62F062E000CFF0B67FD9DC13196D6
:10285000F595E795E8300CF0E7E0EE0FFF0BE65E4C
:10286000FE4F208131816091340670E048E050E0F5
:102870008091390690913A060E94F419912C298191
:102880003A81032E000C440B550B29833A834B836A
:102890005C830D2C000CEE08FF088091340698161E
:1028A00008F07AC10E94AD1B38E0939E800111248C
:1028B0004091390650913A06400F511F5E834D8377
:1028C0002BE030E040E050E00E942F1C29813A814B
:1028D0004B815C81620F731F841F951FAD81BE8188
:1028E00014962D913C911597620F731F15967C934A
:1028F0006E9314970E94AD1B2091390630913A06D1
:10290000020F131F2BE030E040E050E00E942F1C2C
:102910006C0D7D1D8E1D9F1DF8010680F781E02D39
:10292000E60FF71FFE83ED83D8011796FC93EE9315
:1029300016971496AD90BC909501D5010E94D91FB1
:102940002B013C019F01DF010E94D91F640D751D01
:10295000861D971D61307105B1E08B079105A4F1CB
:102960000E94E51D0E94131F2B013C01B501BB0C09
:10297000880B990B0E94E51D20E030E040E853E40D
:102980000E94A01EA30192010E943B1D0E94AD1D4A
:10299000F801758364832D813E81B901330F880B63
:1029A000990B0E94E51D20E030E040E853E40E94CE
:1029B000A01EA30192010E943B1D0E94AD1DD801E3
:1029C00017967C936E931697939467CFA0913906D0
:1029D000B0913A06AD0140535D4F90E080E0F0E0E9
:1029E000E0E02D913C91119737FF02C021503F4FFD
:1029F000232F3327E20FF31F12962D913C9113974B
:102A000037FF02C021503F4F232F3327820F931FE0
:102A100018964A175B0729F70AE510E0B8010E94EB
:102A20001B1C7A8369839B01A2ECB1E00E94BA1C53
:102A30006B017C0185E0F594E794D794C7948A955F
:102A4000D1F762E3C60ED11CE11CF11CCF01B80125
:102A50000E941B1C9B01A0E8BCE00E94BA1C4B0119
:102A60005C0196E0B594A794979487949A95D1F7D2
:102A700070E2870E73E0971EA11CB11CE0912B063B
:102A8000F0912C0609958823E9F18091B2018230FA
:102A9000C8F181E08093B1018091B0018093AF01D2
:102AA00080918100887F816080938100D401AA0F8A
:102AB000BB1FA70196010E944E1C28EE33E040E0A8
:102AC00050E00E94981C69017A0160E072E18AE797
:102AD00090E0A50194010E942F1C21503109410969
:102AE00051093093890020938800C092AB01D092A5
:102AF000AC01E092AD01F092AE0180916F00826076
:102B000080936F008091C201843118F48F5F8093AD
:102B1000C2018091C1019091C201943108F4E5CDC8
:102B20001092C201811117C029813A81ADE1B0E054
:102B30000E94BA1C15E095958795779567951A952B
:102B4000D1F76F5F7F4F8F4F9F4F6093C10185E03B
:102B50008093C001CACD1092C10119828091B20147
:102B60008980881638F4882D0E940D0929812F5FED
:102B70002983F4CF1092B301EACF1092C201B5CDF0
:102B800086EA0E944B0ADBCDCF01409697FD019665
:102B900095958795E82F61CEB12C80913406B816B3
:102BA00008F023C2B8E0BB9E70011124E091390601
:102BB000F0913A06EE0DFF1D80819181648175814F
:102BC0004C01860E971E9A8289822281338146812A
:102BD00057818901040F151F97FE90C0719561956B
:102BE000710990903606969ED001979EB00D1124E3
:102BF000B7FF02C0A150BF4F6B2F660F660BB483A7
:102C000065831A82198217FF9FC05195419551091A
:102C1000A0913606A49FB001A59F700D112477FFE7
:102C200002C061507F4F472F440F440B7683478388
:102C300010E000E040912D0650E037FF02C0215027
:102C40003F4F232F330F330B249F4001259F900CC0
:102C5000349F900C112497FF02C081509F4F892F01
:102C6000990F990B880E991EC80117FF02C0815059
:102C70009F4F692F792F770F770B29813A8137FF83
:102C800002C021503F4F832F932F990F990B469FDE
:102C90006001479FD00C569FD00C1124C80ED91E3E
:102CA0008C149D0409F4EEC0762EA32E0E948B0591
:102CB000882309F4E7C0C818D908D7FE03C0D19407
:102CC000C194D108E0913906F0913A06EE0DFF1D4E
:102CD00081E0C816D10409F054C0808091809A82A6
:102CE00089822481358131952195310940913606BB
:102CF000429FC001439F900D1124BBC0A09130069C
:102D0000B0913106C980DA80AC15BD050CF07BCFDF
:102D1000719561957109D0903606D69E4001D79E77
:102D2000900C11249A82898297FE05C0B4016150EB
:102D30007F4F7A8369836A81660F660B7A81748319
:102D40006583BA83A9835FCFA0913206B091330621
:102D5000A017B1070CF06ECF519541955109109114
:102D60003606149FB001159F700D112477FF02C025
:102D700061507F4F472F440F440B768347838D016B
:102D800059CF8681978120912D062C151D04B1F411
:102D90000281138191958195910940913606489F52
:102DA0009001499F300D112437FF02C021503F4F41
:102DB000832F880F880B3683878364C024813581F5
:102DC00037FF03C031952195310997FF03C09195D5
:102DD00081959109281739070CF4A6C08281938147
:102DE00097FF02C081509F4F692F8A2D0E948B054B
:102DF000E0913906F0913A06EE0DFF1D811117C0E2
:102E000002811381268137813195219531094091C5
:102E10003606429FC001439F900D112497FF02C0C8
:102E200081509F4F892F880F880B9683C5CF808153
:102E3000918197FF02C081509F4F672D892F0E947B
:102E40008B05E0913906F0913A0620913606EE0D99
:102E5000FF1D8111A1C0C080D180DA82C982448166
:102E60005581519541955109249FC001259F900D91
:102E7000112497FF02C081509F4F892F880F880B24
:102E800094838583A0913906B0913A06AE0DBF1D9B
:102E90008D919C91119797FF02C081509F4F492FB0
:102EA000E92FE770F0E0E750F64FE49112968D912C
:102EB0009C9197FF02C081509F4F892F9927509175
:102EC0002F06589F9001599F300D1124842F86950D
:102ED00086958695820F932F911DA0913706B0910C
:102EE0003806A80FB91F8C91E823EC93E0913906BE
:102EF000F0913A06EE0DFF1DC980DA80D182C082C2
:102F00001383028317FF02C001501F4F612F2981D5
:102F10003A8137FF04C021503F4F3A8329838A8189
:102F20000E946E05B39439CE8081918197FF02C0D3
:102F300081509F4F672D892F0E948B05E0913906A4
:102F4000F0913A06EE0DFF1D811105C0C080D180C1
:102F5000DA82C982C6CE8281938197FF02C08150F6
:102F60009F4F692F8A2D0E948B05E0913906F091C1
:102F70003A0620913606EE0DFF1D81110DC002812B
:102F8000138146815781519541955109249FC00174
:102F9000259F900D112442CF808091809A82898252
:102FA0000281138130E04481558151954195510949
:102FB000429FC001439F900D529F900D112497FF97
:102FC00002C081509F4F892F880F880B948385837F
:102FD00046815781519541955109429FC001439FB8
:102FE000900D529F900D112419CF80E0EBEDF1E090
:102FF00081118FEF002481938193819381930394B6
:10300000D1F710924E0610924D0610924C06109277
:103010004B061091C4011111ACC08091BE0190917A
:10302000BF0197FD0196959587959093BF01809379
:10303000BE018091BC019091BD0197FD01969595CF
:1030400087959093BD018093BC011A821982E0910B
:103050003906F0913A0689809A80E80DF91D62815F
:10306000738177FF02C061507F4F672F7727660F0C
:10307000771F8081918197FF02C081509F4F892FD8
:103080009927880F991F41E0112309F4E8C00E9495
:10309000530A29813A81285F3F4F3A832983203D93
:1030A0003240A9F6112309F4FDC02FB7F8946091BE
:1030B000B8017091B9018091BA019091BB012FBF05
:1030C0002CEB32E040E050E00E94981C4B015C0188
:1030D00051E059836DE2861661E09606A104B104C1
:1030E00008F4198220900001312C220C331CC101FC
:1030F00001979E838D8380910101682E712C660C4F
:10310000771C630191E0C91AD108AD81BE81A0345A
:10311000B10528F44981BD01C6010E94720F210149
:10312000B3E04B0E511CB1016E5F7F4F60347105EF
:1031300024F44981C6010E94720FED81FE81F7FFE0
:1031400002C01E821D820D811E817201F1E44F16A4
:1031500051041CF020E4E22EF12C0E151F050CF09A
:1031600081C04981B801C6010E94530A0F5F1F4FF9
:10317000ECCF80914506809346060E94430A8093D7
:10318000450680E20E94B00F882331F08091010152
:10319000811181508093010180E40E94B00F882347
:1031A00041F080910101803408F08FE38F5F8093BC
:1031B000010180E80E94B00F882331F08091000166
:1031C000811181508093000180E10E94B00F88231B
:1031D00041F080910001803208F08FE18F5F809391
:1031E000000188E00E94B00F882309F42ECF809060
:1031F00000018D82909001019982682D892D0E9495
:103200008B05882301F1E981E770F0E0E750F64F84
:10321000E49120912F06969496949694892D90E0AF
:103220006C018D80829EC00CD11C112480913706C8
:1032300090913806C80ED91EDA82C982D6018C91C7
:10324000E823EC9302CF8091C301882319F01092F8
:10325000C301FBCE6D8189810E946E05F6CE0E946E
:10326000710A17CF83010E5F1F4FCD80DE80CE1411
:10327000DF045CF44981B601C8010E94530A96013B
:103280002F5F3F4F3E832D83F0CF41E03DE2831619
:1032900031E09306A104B10408F040E0B101C3019C
:1032A0000E94710A10E000E0D02E7801EE0CFF1CA5
:1032B0001A821982C9806C2D8D2D0E948B0588235E
:1032C00019F1E0913906F0913A069F0120533D4FE4
:1032D0008081918197FF02C081509F4FD91208C011
:1032E0008281938197FF02C081509F4FC91661F080
:1032F00038962E173F0761F741E069817A81660FA2
:10330000771FC7010E94710A49815A814F5F5F4F41
:103310005A8349834032510569F60F5F1F4F0034CD
:10332000110511F680E00E94A60591C9809137062B
:1033300090913806009731F00E94A620109238062E
:10334000109237068091390690913A06009711F055
:103350000C94A6200895CF93DF93DC012D91FB01FF
:103360003191EC013883EB01288341505109CD01A3
:10337000BF01141615068CF3DF91CF910895B0E0CC
:10338000A0E0E5ECF9E10C946B1C6C01D62FC72F83
:103390008A017901F9010995B80197FF15C08D2FB0
:1033A0009C2FF701099597FD08C0B801C601F701E8
:1033B000099597FD16C0DC2DCD2D8D2F9C2FCDB7F7
:1033C000DEB7E8E00C94871C8D2F9C2FF701099540
:1033D0001816190694F3B801C601F701099597FD6F
:1033E000EACFD02FC12FE9CFA8E0B0E0EAEFF9E1B2
:1033F0000C94611C8C0158874F8359019A013195B7
:10340000219531093E832D836F807884600E711E73
:103410006730710578F58F819885689F6001699F95
:10342000D00C789FD00C1124C00ED11E6C147D04DA
:1034300020F02896E2E10C947D1C730113C0470133
:103440002F813885821A930AB701C401F5010995C5
:103450001816190654F44F815885B401C7010E940B
:10346000AB1974010E151F0550F3EF81F8856E0E30
:103470007F1EDCCFCB01969587952F813885829F63
:103480006001839FD00C929FD00C1124C00ED11EDE
:10349000CB010197829F1001839F300C929F300CCB
:1034A00011247801E20CF31C6730710509F442C065
:1034B000C701280169327105B0F183E076956795FF
:1034C0008A95E1F7629F4001639F900C729F900C78
:1034D0001124C401880F991F9A838983AC01400F7E
:1034E000511FB801680D791D9501C8010E94BF19CF
:1034F0002C01A601480D591D9194819491089501C4
:10350000B601C601880D991D0E94BF196C01B70153
:10351000680D791D9501A701C701E981FA818E1B0C
:103520009F0B0E94BF199501AC01B601C2010E9418
:10353000BF196C014F815885B601C8010E94AB19B3
:103540004301630127011A821982EC14FD0408F477
:1035500046C0B801C601F50109951816190654F1BF
:10356000892B71F44F815885B601C3010E94AB19B4
:103570002F813885620E731E81E090E09A838983E3
:10358000EF81F885CE0EDF1EE0CF892B71F44F81DD
:103590005885B201C7010E94AB192D813E81420EB0
:1035A000531E81E090E09A838983EB80FC80EC14C9
:1035B000FD04A8F0B801C701F50109952D813E81F0
:1035C0002E0D3F1D3C832B8397FFDFCF4F81588506
:1035D000B701C6010E94AB19EB80FC80CDCFEF8113
:1035E000F8852E0E3F1E200E311E29813A81232B95
:1035F00009F58214930408F01CCF740113C067010D
:10360000EF81F885CE1ADF0AB701C601F5010995E9
:103610001816190654F44F815885B601C7010E9447
:10362000AB1976010E151F0550F38F819885880E12
:10363000991EDFCF460186189708A301401B510B46
:10364000841695060CF4A4011416150634F4B6017C
:10365000641B750BC8010E94AB1992012E193F091A
:103660007901A101441955098F819885481B590B8F
:103670002417350708F4A9011416150634F4B1010E
:10368000641B750BC6010E94AB19EF81F885E81524
:10369000F90548F4C401BF010E941B1C9501AF014C
:1036A000C8010E94F4192F8138852E153F0508F0B6
:1036B000C0CE81010E191F09C701B9010E941B1C50
:1036C000A3CE8F929F92AF92BF92CF92DF92EF9252
:1036D000FF92CF93DF93EC01688179818A819B818E
:1036E000611571058105910521F464E279ED8BE5A1
:1036F00097E02DE133EF41E050E00E942F1C49019B
:103700005A019B01AC01A7EAB1E40E944E1C6B0177
:103710007C01ACEEB4EFA50194010E945C1CC60EC6
:10372000D71EE81EF91EF7FE06C081E0C81AD108B0
:10373000E10880E8F80AC882D982EA82FB82C701E0
:10374000B6019F77DF91CF91FF90EF90DF90CF9000
:10375000BF90AF909F908F9008958F929F92AF925D
:10376000BF92CF92DF92EF92FF9260910E01709123
:103770000F01809110019091110161157105810572
:10378000910521F464E279ED8BE597E02DE133EFCB
:1037900041E050E00E942F1C49015A019B01AC01FD
:1037A000A7EAB1E40E944E1C6B017C01ACEEB4EFC1
:1037B000A50194010E945C1CC60ED71EE81EF91ECE
:1037C000F7FE06C081E0C81AD108E10880E8F80ACF
:1037D000C0920E01D0920F01E0921001F0921101FF
:1037E000C701B6019F77FF90EF90DF90CF90BF9019
:1037F000AF909F908F90089560930E0170930F018A
:1038000080931001909311010895F999FECF92BD14
:1038100081BDF89A992780B50895262FF999FECF92
:103820001FBA92BD81BD20BD0FB6F894FA9AF99ADD
:103830000FBE01960895AA1BBB1B51E107C0AA1F2A
:10384000BB1FA617B70710F0A61BB70B881F991F41
:103850005A95A9F780959095BC01CD010895052E44
:1038600097FB1EF400940E94461C57FD07D00E944F
:10387000981C07FC03D04EF40C94461C50954095C0
:10388000309521953F4F4F4F5F4F0895909580950C
:10389000709561957F4F8F4F9F4F08950E94BA1C7E
:1038A000A59F900DB49F900DA49F800D911D112494
:1038B0000895B7FF0C944E1C0E944E1C821B930B64
:1038C00008952F923F924F925F926F927F928F92C4
:1038D0009F92AF92BF92CF92DF92EF92FF920F939F
:1038E0001F93CF93DF93CDB7DEB7CA1BDB0B0FB6A9
:1038F000F894DEBF0FBECDBF09942A883988488866
:103900005F846E847D848C849B84AA84B984C884FB
:10391000DF80EE80FD800C811B81AA81B981CE0FF2
:10392000D11D0FB6F894DEBF0FBECDBFED010895D7
:10393000A1E21A2EAA1BBB1BFD010DC0AA1FBB1FB3
:10394000EE1FFF1FA217B307E407F50720F0A21B25
:10395000B30BE40BF50B661F771F881F991F1A9492
:1039600069F760957095809590959B01AC01BD01BC
:10397000CF010895A29FB001B39FC001A39F700D16
:10398000811D1124911DB29F700D811D1124911D67
:1039900008950E94501E60F080E891E009F49EEFC7
:1039A0000E94571E28F040E851E071F45EEF0CC011
:1039B0000C94261E0C94911EE92FE0780E946F1E35
:1039C00040F3092E052AB1F3261737074807590790
:1039D00038F00E2E07F8E02569F0E025E0640AC013
:1039E000EF6307F8009407FADB01B9019D01DC01E0
:1039F000CA01AD01EF930E94521D0E945E1E0E94FB
:103A00000C1D5F91552339F02BED3FE049E450FD4B
:103A100049EC0C94581F0895DF93DD27B92FBF7729
:103A200040E85FE31616170648075B0718F4D92F1E
:103A30000E94981E9F938F937F936F930E94531FB2
:103A4000ECEAF0E00E94291E0E945E1E2F913F9139
:103A50004F915F910E94B31EDD2351F09058A2EA6E
:103A60002AED3FE049EC5FE3D0785D270E946F1FAD
:103A7000DF910C945E1E0E944F1D0C945E1E0E94EE
:103A8000571E58F00E94501E40F029F45F3F29F065
:103A90000C94201E51110C94921E0C94261E0E9410
:103AA0006F1E68F39923B1F3552391F3951B550BC2
:103AB000BB27AA2762177307840738F09F5F5F4F01
:103AC000220F331F441FAA1FA9F335D00E2E3AF040
:103AD000E0E832D091505040E695001CCAF72BD058
:103AE000FE2F29D0660F771F881FBB1F26173707A9
:103AF0004807AB07B0E809F0BB0B802DBF01FF27DB
:103B000093585F4F3AF09E3F510578F00C94201E79
:103B10000C94921E5F3FE4F3983ED4F3869577951C
:103B20006795B795F7959F5FC9F7880F911D969593
:103B3000879597F90895E1E0660F771F881FBB1FEF
:103B4000621773078407BA0720F0621B730B840B9C
:103B5000BA0BEE1F88F7E09508950E94B41D689493
:103B6000B1110C94921E08950E94771E88F09F5701
:103B700098F0B92F9927B751B0F0E1F0660F771F91
:103B8000881F991F1AF0BA95C9F714C0B13091F087
:103B90000E94911EB1E008950C94911E672F782F1A
:103BA0008827B85F39F0B93FCCF38695779567954C
:103BB000B395D9F73EF490958095709561957F4FB8
:103BC0008F4F9F4F0895E89409C097FB3EF490955E
:103BD0008095709561957F4F8F4F9F4F9923A9F0E6
:103BE000F92F96E9BB279395F69587957795679575
:103BF000B795F111F8CFFAF4BB0F11F460FF1BC0B9
:103C00006F5F7F4F8F4F9F4F16C0882311F096E94B
:103C100011C0772321F09EE8872F762F05C06623F9
:103C200071F096E8862F70E060E02AF09A95660FB2
:103C3000771F881FDAF7880F9695879597F908956B
:103C400097F99F6780E870E060E008959FEF80EC4F
:103C50000895DF93CF931F930F93FF92EF92DF921C
:103C60007B018C01689406C0DA2EEF010E94B31E1E
:103C7000FE01E894A5912591359145915591A6F3C2
:103C8000EF010E946F1FFE019701A801DA9469F706
:103C9000DF90EF90FF900F911F91CF91DF910895EA
:103CA00000240A941616170618060906089500241B
:103CB0000A9412161306140605060895092E039495
:103CC000000C11F4882352F0BB0F40F4BF2B11F409
:103CD00060FF04C06F5F7F4F8F4F9F4F089557FD68
:103CE0009058440F551F59F05F3F71F04795880F6A
:103CF00097FB991F61F09F3F79F087950895121601
:103D000013061406551FF2CF4695F1DF08C01616AC
:103D100017061806991FF1CF86957105610508945D
:103D20000895E894BB2766277727CB0197F9089574
:103D30009B01AC0160E070E080E89FE30C943B1DC8
:103D40000E94B31E0C945E1E0E94501E38F00E940A
:103D5000571E20F0952311F00C94201E0C94261E63
:103D600011240C94921E0E946F1E70F3959FC1F354
:103D7000950F50E0551F629FF001729FBB27F00D19
:103D8000B11D639FAA27F00DB11DAA1F649F66276E
:103D9000B00DA11D661F829F2227B00DA11D621FBD
:103DA000739FB00DA11D621F839FA00D611D221F77
:103DB000749F3327A00D611D231F849F600D211D5B
:103DC000822F762F6A2F11249F5750409AF0F1F0DE
:103DD00088234AF0EE0FFF1FBB1F661F771F881F47
:103DE00091505040A9F79E3F510580F00C94201E41
:103DF0000C94921E5F3FE4F3983ED4F3869577953A
:103E00006795B795F795E7959F5FC1F7FE2B880FEC
:103E1000911D9695879597F9089519F416F40C94C9
:103E2000261E0C94C41F0E94771EB8F39923C9F371
:103E3000B6F39F57550B87FF0E94D21F0024A0E6C0
:103E400040EA900180585695979528F4805C660F5B
:103E5000771F881F20F026173707480730F4621BAA
:103E6000730B840B202931294A2BA69517940794AC
:103E7000202531254A2758F7660F771F881F20F025
:103E800026173707480730F4620B730B840B200D9D
:103E9000311D411DA09581F7B901842F9158880FDC
:103EA0009695879508959B01AC010C94A01E5058DF
:103EB000BB27AA270E946F1F0C945E1E0E94501EF3
:103EC00038F00E94571E20F039F49F3F19F426F471
:103ED0000C94261E0EF4E095E7FB0C94201EE92FAF
:103EE0000E946F1E58F3BA1762077307840795077D
:103EF00020F079F4A6F50C94911E0EF4E0950B2EAB
:103F0000BA2FA02D0B01B90190010C01CA01A0012B
:103F10001124FF27591B99F0593F50F4503E68F186
:103F20001A16F040A22F232F342F4427585FF3CFC7
:103F3000469537952795A795F0405395C9F77EF498
:103F40001F16BA0B620B730B840BBAF09150A1F0E1
:103F5000FF0FBB1F661F771F881FC2F70EC0BA0F67
:103F6000621F731F841F48F4879577956795B795EF
:103F7000F7959E3F08F0B0CF9395880F08F09927EA
:103F8000EE0F9795879508959F3F31F0915020F45B
:103F9000879577956795B795880F911D9695879525
:103FA00097F9089591505040660F771F881FD2F7F8
:103FB00008950E94BA1C332312F48A1B9B0B0C94A5
:103FC000E31F0E94BA1CB7FF0895821B930B08954C
:103FD000EE0FFF1F0590F491E02D09940F931F93AE
:103FE000CF93DF93869F8001879F100D969F100DC2
:103FF0001124C8010E940A20EC01009729F0A801B1
:1040000070E060E00E943421CE01DF91CF911F91DA
:104010000F9108950F931F93CF93DF9382309105F3
:1040200010F482E090E0E0915506F091560630E001
:1040300020E0B0E0A0E0309799F42115310509F4B3
:104040004AC0281B390B24303105D8F58A819B8161
:104050006115710589F1FB0193838283FE0111C013
:10406000408151810281138148175907E0F04817B8
:10407000590799F4109761F012960C9312971396C2
:104080001C933296CF01DF91CF911F910F9108952C
:104090000093550610935606F4CF2115310551F0C3
:1040A0004217530738F0A901DB019A01BD01DF0176
:1040B000F801C1CFEF01F9CF9093560680935506D2
:1040C000CDCFFE01E20FF31F81939193225031096E
:1040D00039832883D7CF2091530630915406232B60
:1040E00041F420911401309115013093540620932E
:1040F000530620911201309113012115310541F42D
:104100002DB73EB74091160150911701241B350B76
:10411000E0915306F0915406E217F307A0F42E1B2A
:104120003F0B2817390778F0AC014E5F5F4F24171B
:10413000350748F04E0F5F1F5093540640935306C7
:10414000819391939FCFF0E0E0E09CCFCF93DF93FA
:104150000097E9F0FC01329713821282A091550674
:10416000B0915606ED0130E020E01097A1F42081D7
:104170003181820F931F20915306309154062817E6
:10418000390709F061C0F0935406E0935306DF91BC
:10419000CF910895EA01CE17DF07E8F54A815B81E8
:1041A0009E0141155105B1F7E901FB83EA8349916D
:1041B0005991C40FD51FEC17FD0761F480819181DF
:1041C0000296840F951FE9019983888382819381E8
:1041D0009B838A83F0E0E0E012968D919C91139787
:1041E0000097B9F52D913C911197CD010296820F60
:1041F000931F20915306309154062817390739F63A
:10420000309751F51092560610925506B093540609
:10421000A0935306BCCFD383C28340815181840FC6
:10422000951FC817D90761F44E5F5F4F8881998148
:10423000480F591F518340838A819B8193838283D6
:104240002115310509F0B0CFF0935606E0935506DD
:104250009ECFFD01DC01C0CF13821282D7CF81E057
:1042600090E0F8940C943B21DC0101C06D93415027
:104270005040E0F7089515E0C0E4D5E004C0FE0129
:104280000E94E81F2196C134D107C9F7F894FFCFE7
:104290001020FFFFFFFF00E1000000000000010010
:1042A00000000000570680000301860871086608B8
:1042B00055084C083B08320821080A030A03020388
:1042C000FA02F202EA02E202D702CC02C102B6020C
:1042D000AB029B028002670241022A02FF01ED014C
:1042E000C90182014F011F011001FE00EC00DA003C
:1042F000DA00DA00DA0000C180810000000000006E
:104300000004069C0725061A066B062906470600C8
:10431000000000AB0A1707AF0BAE0BEE0FFCFF005F
:044320000030100059
:00000001FF
